{
  "_format": "hh-sol-artifact-1",
  "contractName": "Transactions",
  "sourceName": "contracts/Transactions.sol",
  "abi": [
    {
      "inputs": [],
      "stateMutability": "payable",
      "type": "constructor"
    },
    {
      "anonymous": false,
      "inputs": [
        {
          "indexed": false,
          "internalType": "uint256",
          "name": "amount",
          "type": "uint256"
        }
      ],
      "name": "Balance",
      "type": "event"
    },
    {
      "anonymous": false,
      "inputs": [
        {
          "indexed": false,
          "internalType": "address",
          "name": "from",
          "type": "address"
        },
        {
          "indexed": false,
          "internalType": "address",
          "name": "receiver",
          "type": "address"
        },
        {
          "indexed": false,
          "internalType": "uint256",
          "name": "amount",
          "type": "uint256"
        },
        {
          "indexed": false,
          "internalType": "string",
          "name": "message",
          "type": "string"
        },
        {
          "indexed": false,
          "internalType": "uint256",
          "name": "timestamp",
          "type": "uint256"
        },
        {
          "indexed": false,
          "internalType": "string",
          "name": "keyword",
          "type": "string"
        }
      ],
      "name": "Transfer",
      "type": "event"
    },
    {
      "inputs": [
        {
          "internalType": "address payable",
          "name": "receiver",
          "type": "address"
        }
      ],
      "name": "addToBlockchain",
      "outputs": [],
      "stateMutability": "payable",
      "type": "function"
    },
    {
      "inputs": [
        {
          "internalType": "address payable",
          "name": "receiver",
          "type": "address"
        },
        {
          "internalType": "uint256",
          "name": "amount",
          "type": "uint256"
        },
        {
          "internalType": "string",
          "name": "message",
          "type": "string"
        },
        {
          "internalType": "string",
          "name": "keyword",
          "type": "string"
        }
      ],
      "name": "addToBlockchain",
      "outputs": [],
      "stateMutability": "nonpayable",
      "type": "function"
    },
    {
      "inputs": [],
      "name": "balance",
      "outputs": [
        {
          "internalType": "uint256",
          "name": "",
          "type": "uint256"
        }
      ],
      "stateMutability": "view",
      "type": "function"
    },
    {
      "inputs": [],
      "name": "contractAddress",
      "outputs": [
        {
          "internalType": "address",
          "name": "",
          "type": "address"
        }
      ],
      "stateMutability": "view",
      "type": "function"
    },
    {
      "inputs": [],
      "name": "getAllTransactions",
      "outputs": [
        {
          "components": [
            {
              "internalType": "address",
              "name": "sender",
              "type": "address"
            },
            {
              "internalType": "address",
              "name": "receiver",
              "type": "address"
            },
            {
              "internalType": "uint256",
              "name": "amount",
              "type": "uint256"
            },
            {
              "internalType": "string",
              "name": "message",
              "type": "string"
            },
            {
              "internalType": "uint256",
              "name": "timestamp",
              "type": "uint256"
            },
            {
              "internalType": "string",
              "name": "keyword",
              "type": "string"
            }
          ],
          "internalType": "struct Transactions.TransferStruct[]",
          "name": "",
          "type": "tuple[]"
        }
      ],
      "stateMutability": "view",
      "type": "function"
    },
    {
      "inputs": [],
      "name": "getTransactionCount",
      "outputs": [
        {
          "internalType": "uint256",
          "name": "",
          "type": "uint256"
        }
      ],
      "stateMutability": "view",
      "type": "function"
    },
    {
      "inputs": [
        {
          "internalType": "uint256",
          "name": "_randomIdentifier",
          "type": "uint256"
        },
        {
          "internalType": "address payable",
          "name": "_buyerAddress",
          "type": "address"
        }
      ],
      "name": "productArrived",
      "outputs": [],
      "stateMutability": "payable",
      "type": "function"
    },
    {
      "inputs": [
        {
          "internalType": "uint256",
          "name": "_randomIdentifier",
          "type": "uint256"
        },
        {
          "internalType": "string",
          "name": "_shippingAddress",
          "type": "string"
        },
        {
          "internalType": "address",
          "name": "_buyerAddress",
          "type": "address"
        },
        {
          "internalType": "string",
          "name": "_productName",
          "type": "string"
        },
        {
          "internalType": "uint256",
          "name": "_price",
          "type": "uint256"
        }
      ],
      "name": "purchaseProduct",
      "outputs": [],
      "stateMutability": "payable",
      "type": "function"
    },
    {
      "inputs": [
        {
          "internalType": "uint256",
          "name": "_randomIdentifier",
          "type": "uint256"
        }
      ],
      "name": "searchInArray",
      "outputs": [
        {
          "components": [
            {
              "internalType": "uint256",
              "name": "randomIdentifier",
              "type": "uint256"
            },
            {
              "internalType": "string",
              "name": "shippingAddress",
              "type": "string"
            },
            {
              "internalType": "address",
              "name": "buyerAddress",
              "type": "address"
            },
            {
              "internalType": "string",
              "name": "productName",
              "type": "string"
            }
          ],
          "internalType": "struct Transactions.productBought",
          "name": "",
          "type": "tuple"
        }
      ],
      "stateMutability": "view",
      "type": "function"
    },
    {
      "inputs": [],
      "name": "seeArray",
      "outputs": [
        {
          "components": [
            {
              "internalType": "uint256",
              "name": "randomIdentifier",
              "type": "uint256"
            },
            {
              "internalType": "string",
              "name": "shippingAddress",
              "type": "string"
            },
            {
              "internalType": "address",
              "name": "buyerAddress",
              "type": "address"
            },
            {
              "internalType": "string",
              "name": "productName",
              "type": "string"
            }
          ],
          "internalType": "struct Transactions.productBought[]",
          "name": "",
          "type": "tuple[]"
        }
      ],
      "stateMutability": "view",
      "type": "function"
    },
    {
      "inputs": [],
      "name": "seeLenght",
      "outputs": [
        {
          "internalType": "uint256",
          "name": "",
          "type": "uint256"
        }
      ],
      "stateMutability": "view",
      "type": "function"
    },
    {
      "inputs": [
        {
          "internalType": "uint256",
          "name": "_randomIdentifier",
          "type": "uint256"
        }
      ],
      "name": "seeMoney",
      "outputs": [
        {
          "internalType": "uint256",
          "name": "",
          "type": "uint256"
        }
      ],
      "stateMutability": "view",
      "type": "function"
    }
  ],
  "bytecode": "0x6080604052737ee351cfa389463dff302c9f80f5b37f115f09c86000806101000a81548173ffffffffffffffffffffffffffffffffffffffff021916908373ffffffffffffffffffffffffffffffffffffffff1602179055506000600555611e558061006c6000396000f3fe6080604052600436106100a75760003560e01c80636c0f028b116100645780636c0f028b146101905780639dc62039146101cd578063b69ef8a81461020a578063bc28624314610235578063cc2d7ead14610251578063f6b4dfb41461027a576100a7565b806327506f53146100ac5780632c0aa58d146100d75780632e7700f0146100f357806332d0bc421461011e57806337fef2ea14610149578063453e369514610165575b600080fd5b3480156100b857600080fd5b506100c16102a5565b6040516100ce9190611927565b60405180910390f35b6100f160048036038101906100ec919061145f565b6104e8565b005b3480156100ff57600080fd5b50610108610622565b604051610115919061198d565b60405180910390f35b34801561012a57600080fd5b5061013361062c565b604051610140919061198d565b60405180910390f35b610163600480360381019061015e9190611423565b610636565b005b34801561017157600080fd5b5061017a61091a565b6040516101879190611949565b60405180910390f35b34801561019c57600080fd5b506101b760048036038101906101b291906113fa565b610afd565b6040516101c4919061198d565b60405180910390f35b3480156101d957600080fd5b506101f460048036038101906101ef91906113fa565b610b1a565b604051610201919061196b565b60405180910390f35b34801561021657600080fd5b5061021f610f54565b60405161022c919061198d565b60405180910390f35b61024f600480360381019061024a919061133e565b610f61565b005b34801561025d57600080fd5b5061027860048036038101906102739190611367565b610fab565b005b34801561028657600080fd5b5061028f61116e565b60405161029c919061189d565b60405180910390f35b60606003805480602002602001604051908101604052809291908181526020016000905b828210156104df57838290600052602060002090600602016040518060c00160405290816000820160009054906101000a900473ffffffffffffffffffffffffffffffffffffffff1673ffffffffffffffffffffffffffffffffffffffff1673ffffffffffffffffffffffffffffffffffffffff1681526020016001820160009054906101000a900473ffffffffffffffffffffffffffffffffffffffff1673ffffffffffffffffffffffffffffffffffffffff1673ffffffffffffffffffffffffffffffffffffffff168152602001600282015481526020016003820180546103b290611c4f565b80601f01602080910402602001604051908101604052809291908181526020018280546103de90611c4f565b801561042b5780601f106104005761010080835404028352916020019161042b565b820191906000526020600020905b81548152906001019060200180831161040e57829003601f168201915b505050505081526020016004820154815260200160058201805461044e90611c4f565b80601f016020809104026020016040519081016040528092919081815260200182805461047a90611c4f565b80156104c75780601f1061049c576101008083540402835291602001916104c7565b820191906000526020600020905b8154815290600101906020018083116104aa57829003601f168201915b505050505081525050815260200190600101906102c9565b50505050905090565b600060405180608001604052808781526020018681526020018573ffffffffffffffffffffffffffffffffffffffff1681526020018481525090506004819080600181540180825580915050600190039060005260206000209060040201600090919091909150600082015181600001556020820151816001019080519060200190610575929190611176565b5060408201518160020160006101000a81548173ffffffffffffffffffffffffffffffffffffffff021916908373ffffffffffffffffffffffffffffffffffffffff16021790555060608201518160030190805190602001906105d9929190611176565b5050506001600560008282546105ef9190611aa8565b925050819055506002826106039190611afe565b6001600088815260200190815260200160002081905550505050505050565b6000600254905090565b6000600554905090565b6000805b60055481101561080b576004818154811061067e577f4e487b7100000000000000000000000000000000000000000000000000000000600052603260045260246000fd5b906000526020600020906004020160020160009054906101000a900473ffffffffffffffffffffffffffffffffffffffff166040516020016106c09190611867565b60405160208183030381529060405280519060200120836040516020016106e79190611882565b6040516020818303038152906040528051906020012014801561075457508360048281548110610740577f4e487b7100000000000000000000000000000000000000000000000000000000600052603260045260246000fd5b906000526020600020906004020160000154145b156107f85760048181548110610793577f4e487b7100000000000000000000000000000000000000000000000000000000600052603260045260246000fd5b90600052602060002090600402016000808201600090556001820160006107ba91906111fc565b6002820160006101000a81549073ffffffffffffffffffffffffffffffffffffffff02191690556003820160006107f191906111fc565b5050600191505b808061080390611c81565b91505061063a565b508015610910578173ffffffffffffffffffffffffffffffffffffffff166108fc60016000868152602001908152602001600020549081150290604051600060405180830381858888f1935050505015801561086b573d6000803e3d6000fd5b5060008054906101000a900473ffffffffffffffffffffffffffffffffffffffff1673ffffffffffffffffffffffffffffffffffffffff166108fc600360016000878152602001908152602001600020546108c69190611b2f565b9081150290604051600060405180830381858888f193505050501580156108f1573d6000803e3d6000fd5b5060006001600085815260200190815260200160002081905550610915565b600080fd5b505050565b60606004805480602002602001604051908101604052809291908181526020016000905b82821015610af457838290600052602060002090600402016040518060800160405290816000820154815260200160018201805461097b90611c4f565b80601f01602080910402602001604051908101604052809291908181526020018280546109a790611c4f565b80156109f45780601f106109c9576101008083540402835291602001916109f4565b820191906000526020600020905b8154815290600101906020018083116109d757829003601f168201915b505050505081526020016002820160009054906101000a900473ffffffffffffffffffffffffffffffffffffffff1673ffffffffffffffffffffffffffffffffffffffff1673ffffffffffffffffffffffffffffffffffffffff168152602001600382018054610a6390611c4f565b80601f0160208091040260200160405190810160405280929190818152602001828054610a8f90611c4f565b8015610adc5780601f10610ab157610100808354040283529160200191610adc565b820191906000526020600020905b815481529060010190602001808311610abf57829003601f168201915b5050505050815250508152602001906001019061093e565b50505050905090565b600060016000838152602001908152602001600020549050919050565b610b2261123c565b60005b6005548111610d735760048181548110610b68577f4e487b7100000000000000000000000000000000000000000000000000000000600052603260045260246000fd5b906000526020600020906004020160000154831415610d605760048181548110610bbb577f4e487b7100000000000000000000000000000000000000000000000000000000600052603260045260246000fd5b906000526020600020906004020160405180608001604052908160008201548152602001600182018054610bee90611c4f565b80601f0160208091040260200160405190810160405280929190818152602001828054610c1a90611c4f565b8015610c675780601f10610c3c57610100808354040283529160200191610c67565b820191906000526020600020905b815481529060010190602001808311610c4a57829003601f168201915b505050505081526020016002820160009054906101000a900473ffffffffffffffffffffffffffffffffffffffff1673ffffffffffffffffffffffffffffffffffffffff1673ffffffffffffffffffffffffffffffffffffffff168152602001600382018054610cd690611c4f565b80601f0160208091040260200160405190810160405280929190818152602001828054610d0290611c4f565b8015610d4f5780601f10610d2457610100808354040283529160200191610d4f565b820191906000526020600020905b815481529060010190602001808311610d3257829003601f168201915b505050505081525050915050610f4f565b8080610d6b90611c81565b915050610b25565b506004600081548110610daf577f4e487b7100000000000000000000000000000000000000000000000000000000600052603260045260246000fd5b906000526020600020906004020160405180608001604052908160008201548152602001600182018054610de290611c4f565b80601f0160208091040260200160405190810160405280929190818152602001828054610e0e90611c4f565b8015610e5b5780601f10610e3057610100808354040283529160200191610e5b565b820191906000526020600020905b815481529060010190602001808311610e3e57829003601f168201915b505050505081526020016002820160009054906101000a900473ffffffffffffffffffffffffffffffffffffffff1673ffffffffffffffffffffffffffffffffffffffff1673ffffffffffffffffffffffffffffffffffffffff168152602001600382018054610eca90611c4f565b80601f0160208091040260200160405190810160405280929190818152602001828054610ef690611c4f565b8015610f435780601f10610f1857610100808354040283529160200191610f43565b820191906000526020600020905b815481529060010190602001808311610f2657829003601f168201915b50505050508152505090505b919050565b6000804790508091505090565b8073ffffffffffffffffffffffffffffffffffffffff166108fc349081150290604051600060405180830381858888f19350505050158015610fa7573d6000803e3d6000fd5b5050565b600160026000828254610fbe9190611aa8565b9250508190555060036040518060c001604052803373ffffffffffffffffffffffffffffffffffffffff1681526020018673ffffffffffffffffffffffffffffffffffffffff16815260200185815260200184815260200142815260200183815250908060018154018082558091505060019003906000526020600020906006020160009091909190915060008201518160000160006101000a81548173ffffffffffffffffffffffffffffffffffffffff021916908373ffffffffffffffffffffffffffffffffffffffff16021790555060208201518160010160006101000a81548173ffffffffffffffffffffffffffffffffffffffff021916908373ffffffffffffffffffffffffffffffffffffffff1602179055506040820151816002015560608201518160030190805190602001906110fd929190611176565b506080820151816004015560a0820151816005019080519060200190611124929190611176565b5050507f416cfa4330a4565f45c2fd2dd4826a83a37443aba2ce6f79477c7355afac35fa338585854286604051611160969594939291906118b8565b60405180910390a150505050565b600030905090565b82805461118290611c4f565b90600052602060002090601f0160209004810192826111a457600085556111eb565b82601f106111bd57805160ff19168380011785556111eb565b828001600101855582156111eb579182015b828111156111ea5782518255916020019190600101906111cf565b5b5090506111f8919061127a565b5090565b50805461120890611c4f565b6000825580601f1061121a5750611239565b601f016020900490600052602060002090810190611238919061127a565b5b50565b60405180608001604052806000815260200160608152602001600073ffffffffffffffffffffffffffffffffffffffff168152602001606081525090565b5b8082111561129357600081600090555060010161127b565b5090565b60006112aa6112a5846119d9565b6119a8565b9050828152602081018484840111156112c257600080fd5b6112cd848285611c0d565b509392505050565b6000813590506112e481611dda565b92915050565b6000813590506112f981611df1565b92915050565b600082601f83011261131057600080fd5b8135611320848260208601611297565b91505092915050565b60008135905061133881611e08565b92915050565b60006020828403121561135057600080fd5b600061135e848285016112ea565b91505092915050565b6000806000806080858703121561137d57600080fd5b600061138b878288016112ea565b945050602061139c87828801611329565b935050604085013567ffffffffffffffff8111156113b957600080fd5b6113c5878288016112ff565b925050606085013567ffffffffffffffff8111156113e257600080fd5b6113ee878288016112ff565b91505092959194509250565b60006020828403121561140c57600080fd5b600061141a84828501611329565b91505092915050565b6000806040838503121561143657600080fd5b600061144485828601611329565b9250506020611455858286016112ea565b9150509250929050565b600080600080600060a0868803121561147757600080fd5b600061148588828901611329565b955050602086013567ffffffffffffffff8111156114a257600080fd5b6114ae888289016112ff565b94505060406114bf888289016112d5565b935050606086013567ffffffffffffffff8111156114dc57600080fd5b6114e8888289016112ff565b92505060806114f988828901611329565b9150509295509295909350565b600061151283836116e5565b905092915050565b60006115268383611775565b905092915050565b61153781611bd7565b82525050565b61154e61154982611b9b565b611cdc565b82525050565b61155d81611b89565b82525050565b61156c81611b89565b82525050565b61158361157e82611b89565b611cca565b82525050565b600061159482611a29565b61159e8185611a64565b9350836020820285016115b085611a09565b8060005b858110156115ec57848403895281516115cd8582611506565b94506115d883611a4a565b925060208a019950506001810190506115b4565b50829750879550505050505092915050565b600061160982611a34565b6116138185611a75565b93508360208202850161162585611a19565b8060005b858110156116615784840389528151611642858261151a565b945061164d83611a57565b925060208a01995050600181019050611629565b50829750879550505050505092915050565b600061167e82611a3f565b6116888185611a86565b9350611698818560208601611c1c565b6116a181611dbc565b840191505092915050565b60006116b782611a3f565b6116c18185611a97565b93506116d1818560208601611c1c565b6116da81611dbc565b840191505092915050565b600060c0830160008301516116fd6000860182611554565b5060208301516117106020860182611554565b5060408301516117236040860182611849565b506060830151848203606086015261173b8282611673565b91505060808301516117506080860182611849565b5060a083015184820360a08601526117688282611673565b9150508091505092915050565b600060808301600083015161178d6000860182611849565b50602083015184820360208601526117a58282611673565b91505060408301516117ba6040860182611554565b50606083015184820360608601526117d28282611673565b9150508091505092915050565b60006080830160008301516117f76000860182611849565b506020830151848203602086015261180f8282611673565b91505060408301516118246040860182611554565b506060830151848203606086015261183c8282611673565b9150508091505092915050565b61185281611bcd565b82525050565b61186181611bcd565b82525050565b60006118738284611572565b60148201915081905092915050565b600061188e828461153d565b60148201915081905092915050565b60006020820190506118b26000830184611563565b92915050565b600060c0820190506118cd6000830189611563565b6118da602083018861152e565b6118e76040830187611858565b81810360608301526118f981866116ac565b90506119086080830185611858565b81810360a083015261191a81846116ac565b9050979650505050505050565b600060208201905081810360008301526119418184611589565b905092915050565b6000602082019050818103600083015261196381846115fe565b905092915050565b6000602082019050818103600083015261198581846117df565b905092915050565b60006020820190506119a26000830184611858565b92915050565b6000604051905081810181811067ffffffffffffffff821117156119cf576119ce611d8d565b5b8060405250919050565b600067ffffffffffffffff8211156119f4576119f3611d8d565b5b601f19601f8301169050602081019050919050565b6000819050602082019050919050565b6000819050602082019050919050565b600081519050919050565b600081519050919050565b600081519050919050565b6000602082019050919050565b6000602082019050919050565b600082825260208201905092915050565b600082825260208201905092915050565b600082825260208201905092915050565b600082825260208201905092915050565b6000611ab382611bcd565b9150611abe83611bcd565b9250827fffffffffffffffffffffffffffffffffffffffffffffffffffffffffffffffff03821115611af357611af2611d00565b5b828201905092915050565b6000611b0982611bcd565b9150611b1483611bcd565b925082611b2457611b23611d2f565b5b828204905092915050565b6000611b3a82611bcd565b9150611b4583611bcd565b9250817fffffffffffffffffffffffffffffffffffffffffffffffffffffffffffffffff0483118215151615611b7e57611b7d611d00565b5b828202905092915050565b6000611b9482611bad565b9050919050565b6000611ba682611bad565b9050919050565b600073ffffffffffffffffffffffffffffffffffffffff82169050919050565b6000819050919050565b6000611be282611be9565b9050919050565b6000611bf482611bfb565b9050919050565b6000611c0682611bad565b9050919050565b82818337600083830152505050565b60005b83811015611c3a578082015181840152602081019050611c1f565b83811115611c49576000848401525b50505050565b60006002820490506001821680611c6757607f821691505b60208210811415611c7b57611c7a611d5e565b5b50919050565b6000611c8c82611bcd565b91507fffffffffffffffffffffffffffffffffffffffffffffffffffffffffffffffff821415611cbf57611cbe611d00565b5b600182019050919050565b6000611cd582611cee565b9050919050565b6000611ce782611cee565b9050919050565b6000611cf982611dcd565b9050919050565b7f4e487b7100000000000000000000000000000000000000000000000000000000600052601160045260246000fd5b7f4e487b7100000000000000000000000000000000000000000000000000000000600052601260045260246000fd5b7f4e487b7100000000000000000000000000000000000000000000000000000000600052602260045260246000fd5b7f4e487b7100000000000000000000000000000000000000000000000000000000600052604160045260246000fd5b6000601f19601f8301169050919050565b60008160601b9050919050565b611de381611b89565b8114611dee57600080fd5b50565b611dfa81611b9b565b8114611e0557600080fd5b50565b611e1181611bcd565b8114611e1c57600080fd5b5056fea264697066735822122018a1d78044aaaf07049be97ca5103809897dcd90b100108fe1cb227ecbb27c4a64736f6c63430008000033",
  "linkReferences": {},
  "deployedLinkReferences": {}
}